:020000040800F2
:100000001804002001010008930D0008250D0008C8
:10001000910D00086D050008590E00080000000051
:10002000000000000000000000000000BB0D000800
:100030006F05000800000000B90D0008BD0D0008A4
:100040001B0100081B0100081B0100081B01000820
:100050001B0100081B0100081B0100081B01000810
:100060001B0100081B0100081B0100081B01000800
:100070001B0100081B0100081B0100081B010008F0
:100080001B0100081B0100081B0100081B010008E0
:100090001B0100081B0100081B0100081B010008D0
:1000A0001B0100081B0100081B0100081B010008C0
:1000B0001B0100081B0100081B0100081B010008B0
:1000C0001B0100081B0100081B0100081B010008A0
:1000D0001B0100081B0100081B0100081B01000890
:1000E0001B0100081B0100081B010008DFF80CD0F1
:1000F00000F096F9004800475B0E00081804002045
:100100000648804706480047FEE7FEE7FEE7FEE7B1
:10011000FEE7FEE7FEE7FEE7FEE7FEE70D0E00085E
:10012000ED000008202A04DB203A21FA02F0002129
:10013000704721FA02F3D040C2F1200291400843F7
:10014000194670472DE9FE4F81EA030404F000448C
:1001500021F0004100944FF0000B23F0004350EADF
:1001600001045ED052EA03045BD0C3F30A54C1F326
:100170000A552C44A4F2F3340194A0FB0254C1F3B9
:10018000130141F48011C3F3130343F4801301FB03
:10019000024400FB034E840A970A44EA815447EA6A
:1001A0008357A4FB076802958D0A05FB07854FEA74
:1001B000932C04FB0C542705029D4FEA065847EA8E
:1001C0001637B5EB08056EEB070C870E920E47EA63
:1001D000811742EA8312A7FB0201B6EB0B0164EB25
:1001E00000042B0D43EA0C335E1844EB1C50DA4636
:1001F0005146E7FB0201C5F313044FEA0B3343EA10
:1002000014534FEA0432019C43EA0603A4F10C04A0
:100210000294009CCDE900B400F0B4F803B0BDE84E
:10022000F08F00200146F9E72DE9F04D81EA030443
:1002300004F0004B21F0004514464FF0000A23F073
:10024000004150EA050220D054EA01021DD0C5F356
:100250000A570246C5F31303C1F31300C1F30A564C
:1002600040F4801543F48013A7EB0608101BD64614
:1002700008F2FD3873EB050002D308F1010801E034
:1002800092185B41B8F1000F03DA00200146BDE887
:10029000F08D00204FF48011064684460EE0171BB7
:1002A00073EB050705D3121B63EB050306434CEA0A
:1002B000010C49084FEA300092185B4150EA0107EF
:1002C000EDD152EA030012D082EA040083EA05016C
:1002D000084305D0101BAB4106D20122002306E0E3
:1002E00000224FF0004302E06FF0010253101AEBBE
:1002F00006004CEB085110EB0A0041EB0B01BDE886
:10030000F04D00F030B80EB5C10F80EAE07008443F
:10031000CA07002140F233438DE80E000A460B461F
:1003200000F030F803B000BD70B5C1F30A5201F01F
:1003300000450024C1F3130140F2FF3341F4801162
:100340009A4201DA002070BD40F233439A42A2F291
:10035000334203DC5242FFF7E5FE00E090402C43BD
:10036000F1D0404270BD10B5141E73F1000408DADC
:10037000401C41F1000192185B411A4301D120F069
:10038000010010BD2DE9F04D92469B4611B1B1FA26
:1003900081F202E0B0FA80F22032904600F052F88A
:1003A00004460F4640EA0A0041EA0B0153465A460A
:1003B000084313D0114653EA010019D0C8F1400296
:1003C0005046FFF7AFFE05460E4650465946424698
:1003D00000F038F8084305D0012004E020463946F3
:1003E000BDE8F08D0020054346EAE0762C43374314
:1003F0000A986305E40AA0EB08000022FD0A44EA1B
:1004000047540A3002D500200146E9E701051019DA
:100410006941DDE9084500196941BDE8F04DA2E7F1
:10042000064C074D06E0E06840F0010394E8070041
:1004300098471034AC42F6D3FFF75CFEC40E0008B8
:10044000E40E0008202A04DB203A00FA02F1002022
:1004500070479140C2F1200320FA03F31943904002
:1004600070470000F8B507464FF480701C461546EB
:100470000E4600F049F84FF4045000F045F81F4BC9
:10048000384631460022FFF7CFFE1D4B4FF0804229
:10049000FFF758FEFFF748FFC0F38D3706996FF35B
:1004A0009F30012D41F4404607D07DB9154D00F530
:1004B0008040A84707F5804005E0124D00F5004058
:1004C000A84707F50040A8473046A84754B1022C7A
:1004D0000ED0012C18BFF8BD42F20200BDE8F84072
:1004E00000F012B84FF40050BDE8F84000F00CB82E
:1004F00042F22800BDE8F84000F006B880842E41A2
:10050000E17A644109050008F8B5854C164F0546A7
:10051000202101222046B847204680210122B847E9
:100520002046802100220026B84714E028044FF01E
:10053000400154BF00220122204600F0F7F8204677
:100540002021002200F0F2F820462021012200F0B4
:10055000EDF801366D000F2EE8D92046202101224A
:10056000BDE8F84000F0E2B82D070008FEE770474C
:10057000B0B5044600F0E0F805468C48611C0078F0
:1005800018BF044400F0D8F8401BA042FAD3B0BD15
:100590002DE9FC4F594A04234FF0000B4FF001089E
:1005A0004FF00F0E4FF000090025904208BF0323C3
:1005B0000093102D08BFBDE8FC8F0A6808FA05F704
:1005C0003A4200F096804A68032A16D9112A24D0AC
:1005D000122A26D04C4B9A4213D04C4B9A4210D040
:1005E0004B4B9A420DD04B4B9A420AD04A4B9A42FF
:1005F00007D04A4B9A4204D020E0DFE802F002160E
:10060000191D8A6832B1012A14BF476107614FF092
:10061000080913E04FF0040910E0CA6802F1040968
:100620000CE0CA6802F10C0908E0D1F80C9005E072
:10063000CA6802F1080901E04FF000095A46044671
:10064000082D28BF203A28BF043426680EFA02F38A
:1006500009FA02F226EA03031A432260CA79D20693
:1006600047D5614A0BF00C0C1346126842F00102A8
:100670001A601A680EFA0CF302F001020192204A85
:10068000019CAC08A2F57E7656F8242022EA030AE3
:10069000234A904208D0234A904207D0224A009B26
:1006A000904208BF022302E0002300E0012303FA86
:1006B0000CF242EA0A0246F82420114E4A68D3039B
:1006C000336854BFBB433B4333609303736854BFE9
:1006D000BB433B437360D302B36854BFBB433B434C
:1006E0009202B360074A1346126854BFBA433A43B2
:1006F0001A600BF1040B01355BE700BF00140140E9
:10070000000401400C040140000011100000121010
:1007100000002110000022100000311000003210F3
:1007200000080140000C014000100140002A08BFF1
:10073000090401617047000005480068704700BF68
:100740001A48034900780A6810440860704700BFDF
:100750001000002080B59148016841F0100101604F
:10076000032000F063F8002000F004F800F020F807
:10077000002080BD70B50D4E04464FF47A7130787C
:10078000B1FBF0F087490968B1FBF0F000F0B6FA70
:1007900001250F2C08D838B94FF0FF302146002230
:1007A000002500F025F87460284670BD0000002088
:1007B00082B00D480222016841F001010160016828
:1007C00001F0010101910199416841F080514160BE
:1007D000406800F08050009000980448016862F37F
:1007E0001A61016002B07047181002400400014015
:1007F00080B5144B1B68C3F3022CBCF1030E8CF0C4
:1008000007034FF0FF3C38BF4FF0000E042B28BF0A
:1008100004230CFA03F399430CFA0EF301FA0EF1D8
:100820009A431143BDE8804000F0B4BA05494FF641
:10083000FF030A681A4060F30A2203481043086065
:10084000704700BF0CED00E00000FA052DE9F84309
:100850000D4652490446086800F00700A84209D234
:10086000086820F0070028430860086800F00700C7
:10087000A84253D120685A4F8946810711D54107B4
:1008800042BF396841F4E0613960010742BF39680D
:1008900041F4605139603968A26821F0F0011143D8
:1008A0003960C00733D1D9F8000000F00700A84232
:1008B0000CD9D9F8000020F007002843C9F800003F
:1008C000D9F8000000F00700A84227D120684107AE
:1008D00005D53968E26821F4E06111433960000709
:1008E00006D53868216920F4605040EAC1003860BC
:1008F00000F05AF839682A4A0024C1F30311515C08
:10090000C840FC4908600020FFF734FF07E060683A
:10091000012808D157F8041C89030DD4012420466E
:1009200001B0BDE8F08357F8041C022802D1890108
:10093000F4D501E08907F1D5396821F003010843B6
:100940003860FFF7F9FE0646606841F288380128F2
:100950000CD0022815D1386800F00C000828A2D06D
:10096000FFF7EAFE801B4045F5D914E0386800F037
:100970000C00042897D0FFF7DFFE801B4045F5D917
:1009800009E0386810F00C0F3FF48DAFFFF7D4FE8C
:10099000801B4045F5D90324C1E700BF0020024079
:1009A000B20E00080800002010B50D4C0D4822685A
:1009B00002F00C03082B18BF10BDC2F383430AA139
:1009C000CB5CD10302D40D48584310BD21680AA264
:1009D0005843C1F34041515CB0FBF1F010BD00BF82
:1009E0000410024000127A000203040506070809F9
:1009F0000A0B0C0D0E0F10100102000000093D0043
:100A00002DE9FC4104460078B84EC00749D0706813
:100A100000F00C00042817D0706800F00C000828C3
:100A200002D17068C0030FD4606898B1B0F5803F00
:100A300006D03168B0F5A02F20D141F4802030607D
:100A4000306840F480301FE03068800329D560684A
:100A500038BB07E1306820F480303060306820F423
:100A600080203060FFF768FE05463068800318D5A7
:100A7000FFF762FE401B6428F7D9E2E021F48030E2
:100A80003060306820F480203060FFF755FE054666
:100A90003068800305D4FFF74FFE401B6428F7D968
:100AA000CFE0207880072BD5706810F00C0F07D0AE
:100AB000706800F00C00082809D17068C00306D4E3
:100AC0003068800715D52069012812D0CAE0216955
:100AD000874800297CD001210160FFF72DFE0546E3
:100AE0003068800705D4FFF727FE401B0228F7D99E
:100AF000A7E03068616920F0F80040EAC10030608A
:100B0000207800072ED5A06978B179480121C0F876
:100B10008014FFF711FE0546706A800715D4FFF7B1
:100B20000BFE401B0228F7D98BE071480021C0F86A
:100B30008014FFF701FE0546706A800712D5FFF7A3
:100B4000FBFD401B0228F7D97BE06A484FF4FA51BD
:100B50000068B0FBF1F0019000BF0198411E002831
:100B60000191F9D12078400774D5F069C0000BD409
:100B7000F0694FF0010840F08050F061F06900F03A
:100B800080500090009801E04FF000085A4F3868FC
:100B9000C0050FD4386840F480703860FFF7CCFD92
:100BA00005463868C00505D4FFF7C6FD401B64281C
:100BB000F7D946E0E068D0B1012805D0316A0528B0
:100BC0002BD141F004003062306A40F001002AE08D
:100BD00000210160FFF7B0FD0546306880077FF512
:100BE0008FAFFFF7A9FD401B0228F6D929E0306A34
:100BF00020F001003062306A20F004003062FFF71C
:100C00009BFD054641F28837306A80071BD5FFF708
:100C100093FD401BB842F7D913E021F00100306288
:100C2000306A20F004003062FFF786FD054641F28D
:100C30008837306A800706D4FFF77EFD401BB84234
:100C4000F7D903204FE0B8F1000F1EBFF06920F084
:100C50008050F061E769002F44D0706800F00C000C
:100C6000082801D101203EE021490020884608667D
:100C7000FFF762FD0546022F0AD147463068800122
:100C800010D5FFF759FD411B03200229F6D92AE0B0
:100C90003068800126D5FFF74FFD411B0320032953
:100CA000F6D320E0206AB0F5803F05D17168A268D4
:100CB00021F40031114371607168626A104321F4BC
:100CC00074110843706001203866FFF735FD044653
:100CD0003068800106D4FFF72FFD011B0320022995
:100CE000F6D900E0002002B0BDE8F081001002401B
:100CF000000042420800002000700040411E002019
:100D0000B0EB116F1CBF01207047044AF023516003
:100D100003490B70072190601160704710E000E0FC
:100D200023ED00E0FEE700007FB51748174C0122D5
:100D3000E0250126016841F010010160016801F021
:100D4000100100910099016841F0200101600168E3
:100D500001F0200100910099016841F00401016057
:100D6000E021006800F00400009000982046FFF7A2
:100D7000DDFC022069460390002002902046CDE968
:100D80000056FFF705FC7FBD181002400008014027
:100D9000FEE7704710B5064A00F00F030028054C27
:100DA00002444FEA0110B8BF1A19107010BD00BFFD
:100DB00000E400E014ED00E070477047FFF7C0BCAE
:100DC000B0B590B000244FF4E01002250121CDE928
:100DD0000B44CDE909440F904FF480300E900D95EF
:100DE0000A910894CDE9061006A8FFF709FE4FF412
:100DF00080600594022104900F20CDE902540190F7
:100E000001A8FFF723FD10B0B0BD00000E480F4A47
:100E1000016841F001010160416811400C4A4160E4
:100E2000016811400160016821F48021016041687E
:100E300021F4FE0141604FF41F01816005484FF02D
:100E400000610160704700BF001002400000FFF821
:100E5000FFFFF6FE08ED00E0FEE782B0FFF77AFC48
:100E6000FFF7AEFFFFF760FF012042F2107400258C
:100E700006460120652EFBD006FB04F0FFF743FA7F
:100E8000002200230095FFF7EDFA6420FFF770FBC6
:100E9000701CEDE702E008C8121F08C1002AFAD151
:100EA00070477047002001E001C1121F002AFBD1EA
:100EB0007047000000000000000001020304060764
:100EC00008090000E80E00080000002010000000E3
:100ED000940E0008F80E000810000020080400001E
:100EE000A40E000800000000010000001000000037
:080EF00000A24A04000000000A
:04000005080000ED02
:00000001FF
